:020000040800F2
:100000000028002079100008090D00080F0D0008D5
:10001000150D00081B0D0008210D00080000000050
:10002000000000000000000000000000270D000894
:10003000330D0008000000003F0D00084B0D0008C4
:10004000C1100008C1100008C1100008C11000084C
:10005000C1100008C1100008C1100008C11000083C
:10006000C1100008C1100008C1100008C11000082C
:10007000C1100008C1100008C1100008C11000081C
:10008000C1100008C1100008C1100008C11000080C
:10009000C1100008C1100008C1100008C1100008FC
:1000A000C1100008C1100008C1100008C1100008EC
:1000B000590D0008C110000800000000C110000820
:1000C000C11000080000000000000000C11000087E
:1000D00000000000C1100008C1100008000000006E
:1000E000C1100008C1100008C11000080000000085
:1000F0000000000000000000000000000000000000
:0C01000000000000000000005FF808F1A3
:10010C0010B5054C237833B9044B13B10448AFF345
:10011C0000800123237010BD20000020000000008F
:10012C001827000808B5034B1BB103490348AFF36C
:10013C00008008BD000000002400002018270008E3
:10014C0080B500AFA94B1B78032B00F2418101A2B3
:10015C0052F823F071010008CB0100087D02000861
:10016C002F030008A24B1B68DBB2184600F072FA92
:10017C00002000F0CDF90346002B0BD09B4B012245
:10018C001A709C4B00221A7000F042FE4FF47A70E9
:10019C0000F000FD984B1B68012B40F01D81974B24
:1001AC001B68002B04D100F033FE944B01221A6023
:1001BC0000F054FF4FF47A7000F0ECFC0CE18D4B26
:1001CC001B780221184600F0C1F9894B1B68DBB281
:1001DC00184600F03FFA8A4B1B68002B07D0082109
:1001EC00884801F082FA4021864801F07EFA00200E
:1001FC0000F08EF90346002B0BD07C4B02221A70B8
:10020C00814B00221A7000F003FE4FF47A7000F05C
:10021C00C1FC012000F07CF90346002B12D0754B79
:10022C001B785A1C794B83FB021313449911D31777
:10023C00C91A0B465B000B4459010B44D11ACAB2C4
:10024C006C4B1A70022000F063F90346002B05D0AA
:10025C00684B1B780021184600F088FD664B1B6824
:10026C00012B40F0BB804FF47A7000F093FCB5E0AA
:10027C00654B1B780321184600F068F95C4B1B6832
:10028C00DBB2184600F0E6F95D4B1B68002B08D07A
:10029C0020215C4801F029FA4FF48071594801F093
:1002AC0024FA002000F034F90346002B0BD04F4BFE
:1002BC0003221A70564B00221A7000F0A9FD4FF45D
:1002CC007A7000F067FC012000F022F90346002B45
:1002DC0012D04D4B1B785A1C4C4B83FB021313440E
:1002EC009911D317C91A0B465B000B4459010B44E7
:1002FC00D11ACAB2444B1A70022000F009F9034615
:10030C00002B05D0404B1B780121184600F02EFD28
:10031C00394B1B68012B63D14FF47A7000F03AFC17
:10032C005EE03B4B1B780421184600F00FF9304B74
:10033C001B68DBB2184600F08DF9314B1B68002BA3
:10034C0007D010212F4801F0D0F980212D4801F061
:10035C00CCF9002000F0DCF80346002B0AD0234B2C
:10036C0000221A7000F016FD00F052FD4FF47A7066
:10037C0000F010FC012000F0CBF80346002B12D04B
:10038C00234B1B785A1C214B83FB021313449911EA
:10039C00D317C91A0B465B000B4459010B44D11AF5
:1003AC00CAB21B4B1A70022000F0B2F80346002BA5
:1003BC0005D0174B1B780221184600F0D7FC0E4BCA
:1003CC001B68012B0ED14FF47A7000F0E3FB09E0AF
:1003DC00064B00221A7006E000BF04E000BF02E0EA
:1003EC0000BF00E000BF00BF80BD00BF3C0000208C
:1003FC005C0000203D000020580000204000002040
:10040C0060000020000C01403E00002003B57EA5DA
:10041C003F00002080B483B000AF00237B6011E06C
:10042C000D4A7B68134401221A700C4A7B681344F2
:10043C0001221A700A4A7B68134401221A707B68E5
:10044C0001337B607B68022BEADD00BF00BF0C37F9
:10045C00BD4680BC704700BF480000204C00002007
:10046C004400002080B582B000AF234B1B78052BD5
:10047C0037D9214B00221A7000237B602DE01F4AD4
:10048C007B68134419781E4A7B6813440A461A7019
:10049C001C4A7B6832F8133019461B4801F0F6F8F9
:1004AC0003461946154A7B6813440A461A70134AC8
:1004BC007B6813441A7812497B680B441B789A4268
:1004CC0008D10E4A7B6813441978104A7B68134490
:1004DC000A461A707B6801337B607B68022BCED98D
:1004EC0005E0054B1B780133DAB2034B1A7000BFE1
:1004FC000837BD4680BD00BF4F00002048000020DB
:10050C004C00002000000020000C014044000020A2
:10051C0080B483B000AF0346FB71FB79022B01D989
:10052C0000230BE0FB79084AD35C002B05D1FB7947
:10053C00054A0121D154012300E0002318460C3751
:10054C00BD4680BC704700BF4400002080B483B01F
:10055C0000AF03460A46FB711346BB71FB79174A81
:10056C00A2FB0323DB08DAB2154B1A70FA79134B92
:10057C00A3FB0213D9080B469B000B445B00D31A58
:10058C00DAB20F4B5A70BB790C4AA2FB0323DB087F
:10059C00DAB20B4B9A70BA79084BA3FB0213D90849
:1005AC000B469B000B445B00D31ADAB2044BDA7097
:1005BC0000BF0C37BD4680BC704700BFCDCCCCCC47
:1005CC005000002080B483B000AF0346FB71FB7970
:1005DC000C4AA2FB0323DB08DAB20B4B1A70FA7934
:1005EC00084BA3FB0213D9080B469B000B445B0082
:1005FC00D31ADAB2044B5A7000BF0C37BD4680BC1C
:10060C00704700BFCDCCCCCC5000002080B483B060
:10061C0000AF0346FB71FB790C4AA2FB0323DB08FA
:10062C00DAB20B4B9A70FA79084BA3FB0213D90878
:10063C000B469B000B445B00D31ADAB2044BDA7006
:10064C0000BF0C37BD4680BC704700BFCDCCCCCCB6
:10065C005000002080B582B000AF0346FB71FB79DF
:10066C00002B02D0012B2DD059E001224FF48061D8
:10067C002D4801F022F801224FF480512A4801F054
:10068C001CF800224FF40071274801F016F80022E4
:10069C004FF40061244801F010F8244B1B781A46E3
:1006AC00234B9A5C234B1A70204B9B781A46204B99
:1006BC009A5C204B9A70002000F03EF8022000F06B
:1006CC00BDF82CE001224FF40071174800F0F5FF43
:1006DC0001224FF40061144800F0EFFF00224FF4A8
:1006EC008061114800F0E9FF00224FF480510E4860
:1006FC0000F0E3FF0D4B5B781A460D4B9A5C0D4BEB
:10070C005A700A4BDB781A46094B9A5C094BDA7023
:10071C00012000F011F8032000F090F800BF00BF9A
:10072C000837BD4680BD00BF000C014050000020C2
:10073C00080000205400002080B582B000AF0346B2
:10074C00FB71FB793B4AD35C03F00103002B0CBF1C
:10075C0001230023DBB21A460221374800F0ADFF1B
:10076C00FB79344AD35C5B08DBB203F00103002B4A
:10077C000CBF01230023DBB21A4604212E4800F0E3
:10078C009CFFFB792B4AD35C9B08DBB203F0010383
:10079C00002B0CBF01230023DBB21A46082126488C
:1007AC0000F08BFFFB79234AD35CDB08DBB203F050
:1007BC000103002B0CBF01230023DBB21A461021CE
:1007CC001D4800F07AFFFB791A4AD35C1B09DBB297
:1007DC0003F00103002B0CBF01230023DBB21A46EC
:1007EC002021154800F069FFFB79124AD35C5B09A4
:1007FC00DBB203F00103002B0CBF01230023DBB29F
:10080C001A4640210C4800F058FFFB79094AD35C8A
:10081C009B09DBB203F00103002B0CBF0123002367
:10082C00DBB21A468021044800F047FF00BF0837AE
:10083C00BD4680BD540000200008014080B582B048
:10084C0000AF0346FB71FB793F4AD35C03F0010315
:10085C00002B0CBF01230023DBB21A464FF480712E
:10086C003A4800F02AFFFB79374AD35C5B08DBB2CD
:10087C0003F00103002B0CBF01230023DBB21A464B
:10088C004FF40071314800F018FFFB792E4AD35C0D
:10089C009B08DBB203F00103002B0CBF01230023E8
:1008AC00DBB21A464FF48061284800F006FFFB7952
:1008BC00254AD35CDB08DBB203F00103002B0CBF31
:1008CC0001230023DBB21A464FF400611F4800F0ED
:1008DC00F4FEFB791C4AD35C1B09DBB203F0010369
:1008EC00002B0CBF01230023DBB21A464FF48051BE
:1008FC00164800F0E2FEFB79134AD35C5B09DBB2CD
:10090C0003F00103002B0CBF01230023DBB21A46BA
:10091C004FF400510D4800F0D0FEFB790A4AD35C2D
:10092C009B09DBB203F00103002B0CBF0123002356
:10093C00DBB21A464FF48041044800F0BEFE00BF03
:10094C000837BD4680BD00BF5400002000080140A0
:10095C0080B500AF00F0B0FB00F020F800F0A6F876
:10096C0000F058F80C4801F011FBFFF753FD002183
:10097C00062000F0FBF90121022000F0F7F902211A
:10098C00032000F0F3F900F005FA4FF47A7000F050
:10099C0001F9FFF7D5FBFCE77000002080B590B0A3
:1009AC0000AF07F1180328220021184601F0A6FE1B
:1009BC003B1D00221A605A609A60DA601A610223A9
:1009CC00BB610123BB621023FB6200237B6307F135
:1009DC001803184600F0A2FE0346002B01D000F0CD
:1009EC00D3F80F237B600023BB600023FB60002344
:1009FC003B6100237B613B1D0021184601F00EF981
:100A0C000346002B01D000F0BFF800BF4037BD46B5
:100A1C0080BD000080B586B000AF07F1080300224E
:100A2C001A605A609A60DA603B4600221A605A607B
:100A3C001D4B4FF080421A601B4B41F63F725A60BF
:100A4C00194B00229A60184B0922DA60164B0022CF
:100A5C001A61154B00229A61134801F047FA0346BC
:100A6C00002B01D000F090F84FF48053BB6007F1DD
:100A7C00080319460C4801F0DDFB0346002B01D09E
:100A8C0000F082F800233B6000237B603B46194654
:100A9C00054801F0A5FD0346002B01D000F074F8C9
:100AAC0000BF1837BD4680BD7000002080B586B0F1
:100ABC0000AF07F1080300221A605A609A60DA60EE
:100ACC00284B9B69274A43F004039361254B9B6990
:100ADC0003F004037B607B68224B9B69214A43F043
:100AEC00080393611F4B9B6903F008033B603B6851
:100AFC00002247F6FE711C4800F0DFFD002241F693
:100B0C00F8711A4800F0D9FD47F6FE73BB6001235B
:100B1C00FB6000233B6102237B6107F1080319464C
:100B2C00114800F039FC0723BB600023FB60012354
:100B3C003B6107F1080319460C4800F02DFC41F607
:100B4C00F873BB600123FB6000233B6102237B61D4
:100B5C0007F108031946054800F01EFC00BF1837C2
:100B6C00BD4680BD0010024000080140000C014051
:100B7C0080B582B000AF7860FFF774FC00F026F807
:100B8C0000BF0837BD4680BD80B400AF72B600BF51
:100B9C00FEE7000080B483B000AF78607B68084A41
:100BAC0082FB03129210DB17D31A064A1360064B12
:100BBC0000221A6000BF0C37BD4680BC704700BFD6
:100BCC0067666666B80000205800002080B400AF4D
:100BDC001A4B1B68002B2DDD184B1B68013B174A69
:100BEC001360164B1B68322B03DD154B01221A6068
:100BFC0002E0134B00221A60104B1968114B83FB57
:100C0C000123DA10CB17D21A13469B0013449A0017
:100C1C001344CA1A002A03D10B4B01221A6002E0BA
:100C2C00094B00221A60054B1B68002B02D1074BA5
:100C3C0001221A6000BFBD4680BC7047B80000207E
:100C4C005C0000201F85EB51600000205800002044
:100C5C0080B485B000AF154B9B69144A43F0010377
:100C6C009361124B9B6903F00103BB60BB680F4B94
:100C7C00DB690E4A43F08053D3610C4BDB6903F004
:100C8C0080537B607B680A4B5B68FB60FB6823F0DE
:100C9C00E063FB60FB6843F08063FB60044AFB6825
:100CAC00536000BF1437BD4680BC70470010024033
:100CBC000000014080B584B000AF78607B681B6891
:100CCC00B3F1804F13D10C4BDB690B4A43F001039A
:100CDC00D361094BDB6903F00103FB60FB68002265
:100CEC0000211C2000F021FB1C2000F03AFB00BF6F
:100CFC001037BD4680BD00BF0010024080B400AF6D
:100D0C00FEE780B400AFFEE780B400AFFEE780B42E
:100D1C0000AFFEE780B400AFFEE780B400AF00BFC9
:100D2C00BD4680BC704780B400AF00BFBD4680BCE0
:100D3C00704780B400AF00BFBD4680BC704780B523
:100D4C0000AF00F0FFF900BF80BD000080B500AF20
:100D5C00024801F067F900BF80BD00BF70000020A1
:100D6C0080B400AF00BFBD4680BC704780B483B078
:100D7C0000AF03460A46FB711346BB71BB790449AD
:100D8C00FA79CA5400BF0C37BD4680BC704700BF0F
:100D9C006400002080B400AF134B1A78134B1A7008
:100DAC00114B5A78124B1A700F4B9A78114B1A70D0
:100DBC000D4B1A78104B1A700B4B5A780F4B1A704C
:100DCC00094B9A780E4B1A70074B1A780D4B1A7008
:100DDC00054B5A780C4B1A70034B9A780B4B1A70C4
:100DEC0000BFBD4680BC7047640000206700002037
:100DFC0068000020690000206A0000206B000020C1
:100E0C006C0000206D0000206E0000206F000020A0
:100E1C0080B500AF012208210F4800F04EFC0122E2
:100E2C0040210D4800F049FC012220210A4800F025
:100E3C0044FC01224FF48071074800F03EFC012273
:100E4C001021054800F039FC01228021024800F0F5
:100E5C0034FC00BF80BD00BF000C014080B500AF6A
:100E6C00364B1B78002B1AD0344B1B781846FFF7E7
:100E7C00CDFB01220821324800F01FFC0122202169
:100E8C002F4800F01AFC002210212D4800F015FC10
:100E9C002A4B1B78013BDAB2284B1A703CE0294BE9
:100EAC001B78002B1AD0274B1B781846FFF7AEFB8C
:100EBC0001220821224800F000FC002220212048B9
:100ECC0000F0FBFB012210211D4800F0F6FB1D4B2E
:100EDC001B78013BDAB21B4B1A701DE01A4B1B78C6
:100EEC00002B19D0184B1B781846FFF78FFB0022EC
:100EFC000821134800F0E1FB01222021104800F0EA
:100F0C00DCFB012210210E4800F0D7FB0E4B1B78A6
:100F1C00013BDAB20C4B1A700B4B1B78002B0BD12C
:100F2C000A4B1A78084B1A70094B1A78054B1A7031
:100F3C00084B1A78014B1A7000BF80BD6C00002062
:100F4C00000C01406B0000206A0000206D000020A6
:100F5C006E0000206F00002080B500AF384B1B786E
:100F6C00002B1BD0364B1B781846FFF72BFB0022AF
:100F7C004021344800F0A1FB01224FF4807131482C
:100F8C0000F09BFB012280212E4800F096FB2C4B9D
:100F9C001B78013BDAB22A4B1A703EE02A4B1B78C5
:100FAC00002B1BD0284B1B781846FFF70BFB01229C
:100FBC004021244800F081FB00224FF4807121482D
:100FCC0000F07BFB012280211E4800F076FB1E4BBB
:100FDC001B78013BDAB21C4B1A701EE01B4B1B78C2
:100FEC00002B1AD0194B1B781846FFF7EBFA01228D
:100FFC004021144800F061FB01224FF4807111482C
:10100C0000F05BFB002280210E4800F056FB0F4BDA
:10101C001B78013BDAB20D4B1A700C4B1B78002B72
:10102C000BD10B4B1A78064B1A700A4B1A78064BDD
:10103C001A70094B1A78054B1A7000BF80BD00BF9F
:10104C0067000020000C01406800002069000020AF
:10105C006D0000206E0000206F00002080B500AFF6
:10106C00FFF77AFFFFF7FAFE00BF80BD0C480D4971
:10107C000D4A002302E0D458C4500433C4188C42E7
:10108C00F9D30A4A0A4C002301E013600432A2424D
:10109C00FBD3FFF765FE01F00DFBFFF759FC704722
:1010AC00000000202000002058270008200000200D
:1010BC00C0000020FEE7000080B500AF084B1B68A5
:1010CC00074A43F010031360032000F023F90F20AC
:1010DC0000F008F8FFF7BCFD0023184680BD00BFE8
:1010EC000020024080B582B000AF7860124B1A68C5
:1010FC00124B1B7819464FF47A73B3FBF1F3B2FB26
:10110C00F3F3184600F03BF90346002B01D0012302
:10111C000EE07B680F2B0AD8002279684FF0FF3065
:10112C0000F003F9064A7B681360002300E00123FA
:10113C0018460837BD4680BD140000201C00002056
:10114C001800002080B400AF054B1B781A46054BE5
:10115C001B681344034A136000BFBD4680BC704734
:10116C001C000020BC00002080B400AF024B1B68A8
:10117C001846BD4680BC7047BC00002080B485B0CA
:10118C0000AF78607B6803F00703FB600C4BDB68F7
:10119C00BB60BA684FF6FF031340BB60FB681A02D2
:1011AC00BB68134343F0BF6343F40033BB60044A92
:1011BC00BB68D36000BF1437BD4680BC704700BF0E
:1011CC0000ED00E080B400AF044BDB681B0A03F0B9
:1011DC0007031846BD4680BC704700BF00ED00E019
:1011EC0080B483B000AF0346FB7197F90730002B36
:1011FC000BDBFB7903F01F02064997F907305B09FB
:10120C00012000FA02F241F8232000BF0C37BD4642
:10121C0080BC704700E100E080B483B000AF0346AF
:10122C003960FB7197F90730002B0ADB3B68DAB2A7
:10123C000C4997F907301201D2B20B4483F8002302
:10124C000AE03B68DAB20849FB7903F00F03043B70
:10125C001201D2B20B441A7600BF0C37BD4680BCCB
:10126C00704700BF00E100E000ED00E080B489B001
:10127C0000AFF860B9607A60FB6803F00703FB61AC
:10128C00FB69C3F10703042B28BF0423BB61FB6973
:10129C000433062B02D9FB69033B00E000237B617E
:1012AC004FF0FF32BB6902FA03F3DA43BB681A4012
:1012BC007B699A404FF0FF317B6901FA03F3D94304
:1012CC007B680B40134318462437BD4680BC7047DF
:1012DC0080B582B000AF78607B68013BB3F1807F52
:1012EC0001D301230FE00A4A7B68013B53600F21B5
:1012FC004FF0FF30FFF790FF054B00229A60044B34
:10130C0007221A60002318460837BD4680BD00BF6F
:10131C0010E000E080B582B000AF78607868FFF72D
:10132C002DFF00BF0837BD4680BD80B586B000AF2D
:10133C000346B9607A60FB7300237B61FFF742FFC1
:10134C0078617A68B9687869FFF790FF024697F977
:10135C000F3011461846FFF75FFF00BF1837BD4628
:10136C0080BD80B582B000AF0346FB7197F90730A2
:10137C001846FFF735FF00BF0837BD4680BD80B566
:10138C0082B000AF78607868FFF7A2FF034618467A
:10139C000837BD4680BD000080B48BB000AF7860CC
:1013AC00396000237B6200233B6248E101227B6AA7
:1013BC0002FA03F3FB613B681B68FA691340BB61DB
:1013CC00BA69FB699A4240F037813B685B68A34A73
:1013DC0093425ED0A14A934275D8A14A934258D009
:1013EC009F4A93426FD89F4A934252D09D4A934250
:1013FC0069D89D4A93424CD09B4A934263D89B4AEE
:10140C00934246D0994A93425DD8122B2AD8122B7C
:10141C0059D801A252F823F09F140008791400083F
:10142C008B140008CD140008D3140008D314000842
:10143C00D3140008D3140008D3140008D3140008E4
:10144C00D3140008D3140008D3140008D3140008D4
:10145C00D3140008D3140008D31400088114000816
:10146C0095140008824A934213D02CE03B68DB6849
:10147C003B6229E03B68DB6804333B6224E03B6859
:10148C00DB6808333B621FE03B68DB680C333B6274
:10149C001AE03B689B68002B02D104233B6213E0EB
:1014AC003B689B68012B05D108233B627B68FA697A
:1014BC001A6109E008233B627B68FA695A6103E010
:1014CC0000233B6200E000BFBB69FF2B01D87B68A7
:1014DC0001E07B6804337B61BB69FF2B02D87B6A1C
:1014EC009B0002E07B6A083B9B003B617B691A68AE
:1014FC000F213B6901FA03F3DB431A40396A3B695C
:10150C0001FA03F31A437B691A603B685B6803F0CA
:10151C008053002B00F09080564B9B69554A43F04A
:10152C0001039361534B9B6903F00103BB60BB68E0
:10153C00514A7B6A9B08023352F82330FB607B6A6A
:10154C0003F003039B000F2202FA03F3DB43FA6858
:10155C001340FB607B68494A93420DD07B68484A34
:10156C00934207D07B68474A934201D1022304E09F
:10157C00032302E0012300E000237A6A02F0030255
:10158C0092009340FA681343FB603B497B6A9B08CB
:10159C000233FA6841F823203B685B6803F480331C
:1015AC00002B06D0384B1A683749BB6913430B60C4
:1015BC0006E0354B1A68BB69DB43334913400B60BB
:1015CC003B685B6803F40033002B06D02E4B5A6843
:1015DC002D49BB6913434B6006E02B4B5A68BB6922
:1015EC00DB43294913404B603B685B6803F4801371
:1015FC00002B06D0244B9A682349BB6913438B609C
:10160C0006E0214B9A68BB69DB431F4913408B6092
:10161C003B685B6803F40013002B06D01A4BDA68A6
:10162C001949BB691343CB6006E0174BDA68BB69F9
:10163C00DB4315491340CB607B6A01337B623B680B
:10164C001A687B6A22FA03F3002B7FF4AFAE00BF5B
:10165C0000BF2C37BD4680BC704700BF0000321065
:10166C0000003110000022100000211000001210A8
:10167C000000111000100240000001400008014061
:10168C00000C0140001001400004014080B485B002
:10169C0000AF78600B467B807B689A687B88134030
:1016AC00002B02D00123FB7301E00023FB73FB7BB7
:1016BC0018461437BD4680BC704780B483B000AF69
:1016CC0078600B467B8013467B707B78002B03D0B5
:1016DC007A887B681A6103E07B881A047B681A613C
:1016EC0000BF0C37BD4680BC704780B485B000AFDE
:1016FC0078600B467B807B68DB68FB607A88FB68D4
:10170C0013401A04FB68D9437B880B401A437B684F
:10171C001A6100BF1437BD4680BC704780B586B0D7
:10172C0000AF78607B68002B01D101236CE27B68F1
:10173C001B6803F00103002B00F08780924B5B6861
:10174C0003F00C03042B0CD08F4B5B6803F00C03E1
:10175C00082B12D18C4B5B6803F48033B3F5803FBC
:10176C000BD1894B1B6803F40033002B6CD07B68C6
:10177C005B68002B68D1012346E27B685B68B3F59C
:10178C00803F06D1804B1B687F4A43F48033136043
:10179C002EE07B685B68002B0CD17B4B1B687A4A74
:1017AC0023F480331360784B1B68774A23F480232F
:1017BC0013601DE07B685B68B3F5A02F0CD1724BF6
:1017CC001B68714A43F4802313606F4B1B686E4A8D
:1017DC0043F4803313600BE06B4B1B686A4A23F4B1
:1017EC0080331360684B1B68674A23F480231360B3
:1017FC007B685B68002B13D0FFF7B6FC386108E000
:10180C00FFF7B2FC02463B69D31A642B01D90323C0
:10181C00FAE15D4B1B6803F40033002BF0D014E0AD
:10182C00FFF7A2FC386108E0FFF79EFC02463B691B
:10183C00D31A642B01D90323E6E1534B1B6803F441
:10184C000033002BF0D100E000BF7B681B6803F075
:10185C000203002B63D04C4B5B6803F00C03002B92
:10186C000BD0494B5B6803F00C03082B1CD1464B87
:10187C005B6803F48033002B16D1434B1B6803F0D9
:10188C000203002B05D07B681B69012B01D00123BF
:10189C00BAE13D4B1B6823F0F8027B685B69DB0007
:1018AC00394913430B603AE07B681B69002B20D04D
:1018BC00364B01221A60FFF757FC386108E0FFF73E
:1018CC0053FC02463B69D31A022B01D903239BE13B
:1018DC002D4B1B6803F00203002BF0D02A4B1B6826
:1018EC0023F0F8027B685B69DB00274913430B602C
:1018FC0015E0264B00221A60FFF736FC386108E031
:10190C00FFF732FC02463B69D31A022B01D90323A1
:10191C007AE11D4B1B6803F00203002BF0D17B68AE
:10192C001B6803F00803002B3AD07B689B69002BE3
:10193C0019D0174B01221A60FFF716FC386108E02A
:10194C00FFF712FC02463B69D31A022B01D9032381
:10195C005AE10D4B5B6A03F00203002BF0D001201F
:10196C0000F0A6FA1CE00A4B00221A60FFF7FCFB01
:10197C0038610FE0FFF7F8FB02463B69D31A022BE4
:10198C0008D9032340E100BF00100240000042428E
:10199C00800442429E4B5B6A03F00203002BE9D1A8
:1019AC007B681B6803F00403002B00F0A680002367
:1019BC00FB75974BDB6903F08053002B0DD1944BD7
:1019CC00DB69934A43F08053D361914BDB6903F09D
:1019DC008053BB60BB680123FB758E4B1B6803F403
:1019EC008073002B18D18B4B1B688A4A43F480738D
:1019FC001360FFF7B9FB386108E0FFF7B5FB02464F
:101A0C003B69D31A642B01D90323FDE0814B1B687E
:101A1C0003F48073002BF0D07B68DB68012B06D1BC
:101A2C007B4B1B6A7A4A43F0010313622DE07B68FF
:101A3C00DB68002B0CD1764B1B6A754A23F0010333
:101A4C001362734B1B6A724A23F0040313621CE08B
:101A5C007B68DB68052B0CD16D4B1B6A6C4A43F021
:101A6C00040313626A4B1B6A694A43F00103136255
:101A7C000BE0674B1B6A664A23F001031362644B4D
:101A8C001B6A634A23F0040313627B68DB68002B38
:101A9C0015D0FFF769FB38610AE0FFF765FB0246DA
:101AAC003B69D31A41F28832934201D90323ABE04C
:101ABC00574B1B6A03F00203002BEED014E0FFF728
:101ACC0053FB38610AE0FFF74FFB02463B69D31A20
:101ADC0041F28832934201D9032395E04C4B1B6AA7
:101AEC0003F00203002BEED1FB7D012B05D1484BFB
:101AFC00DB69474A23F08053D3617B68DB69002B99
:101B0C0000F08180424B5B6803F00C03082B61D022
:101B1C007B68DB69022B46D13F4B00221A60FFF732
:101B2C0023FB386108E0FFF71FFB02463B69D31A21
:101B3C00022B01D9032367E0354B1B6803F00073BC
:101B4C00002BF0D17B681B6AB3F5803F08D1304B7A
:101B5C005B6823F400327B689B682D4913434B6010
:101B6C002B4B5B6823F474127B68196A7B685B6A85
:101B7C000B43274913434B60274B01221A60FFF795
:101B8C00F3FA386108E0FFF7EFFA02463B69D31A23
:101B9C00022B01D9032337E01D4B1B6803F00073A4
:101BAC00002BF0D02FE01C4B00221A60FFF7DCFA60
:101BBC00386108E0FFF7D8FA02463B69D31A022BCA
:101BCC0001D9032320E0124B1B6803F00073002B98
:101BDC00F0D118E07B68DB69012B01D1012313E004
:101BEC000B4B5B68FB60FB6803F480327B681B6A01
:101BFC009A4206D1FB6803F470127B685B6A9A42C6
:101C0C0001D0012300E0002318461837BD4680BDE3
:101C1C0000100240007000406000424280B584B069
:101C2C0000AF786039607B68002B01D10123D0E0D4
:101C3C006A4B1B6803F007033A689A4210D9674B4A
:101C4C001B6823F0070265493B6813430B60634B29
:101C5C001B6803F007033A689A4201D00123B8E0ED
:101C6C007B681B6803F00203002B20D07B681B6889
:101C7C0003F00403002B05D0594B5B68584A43F41E
:101C8C00E06353607B681B6803F00803002B05D0EE
:101C9C00534B5B68524A43F460535360504B5B6840
:101CAC0023F0F0027B689B684D4913434B607B68C3
:101CBC001B6803F00103002B40D07B685B68012B91
:101CCC0007D1474B1B6803F40033002B15D10123BC
:101CDC007FE07B685B68022B07D1414B1B6803F0EC
:101CEC000073002B09D1012373E03D4B1B6803F0FB
:101CFC000203002B01D101236BE0394B5B6823F00D
:101D0C0003027B685B68364913434B60FFF72CFA80
:101D1C00F8600AE0FFF728FA0246FB68D31A41F292
:101D2C008832934201D9032353E02D4B5B6803F0B7
:101D3C000C027B685B689B009A42EBD1274B1B68BB
:101D4C0003F007033A689A4210D2244B1B6823F025
:101D5C00070222493B6813430B60204B1B6803F0BE
:101D6C0007033A689A4201D0012332E07B681B6872
:101D7C0003F00403002B08D0194B5B6823F4E062DA
:101D8C007B68DB68164913434B607B681B6803F068
:101D9C000803002B09D0124B5B6823F460527B685C
:101DAC001B69DB000E4913434B6000F021F802461F
:101DBC000B4B5B681B0903F00F030A49CB5C22FA3F
:101DCC0003F3094A1360094B1B681846FFF78AF99D
:101DDC00002318461037BD4680BD00BF00200240CE
:101DEC0000100240402700081400002018000020BA
:101DFC0090B48AB000AF2A4B3C1D0FCB84E80F0087
:101E0C0040F201233B800023FB610023BB610023D4
:101E1C007B6200237B6100233B62224B5B68FB618E
:101E2C00FB6903F00C03042B02D0082B03D02DE02C
:101E3C001D4B3B622DE0FB699B0C03F00F0307F17C
:101E4C002802134413F8243C7B61FB6903F48033B0
:101E5C00002B13D0134B5B685B0C03F0010307F1F1
:101E6C002802134413F8283CBB617B690E4A02FB21
:101E7C0003F2BB69B2FBF3F37B6204E07B690B4AB0
:101E8C0002FB03F37B627B6A3B6202E0064B3B6224
:101E9C0000BF3B6A18462837BD4690BC704700BF50
:101EAC00302700080010024000127A0000093D00A3
:101EBC0080B485B000AF78600A4B1B680A4AA2FB5D
:101ECC0003235B0A7A6802FB03F3FB6000BFFB6829
:101EDC005A1EFA60002BF9D100BF00BF1437BD4663
:101EEC0080BC704714000020D34D621080B582B0C6
:101EFC0000AF78607B68002B01D1012341E07B6847
:101F0C0093F83D30DBB2002B06D17B68002283F8BE
:101F1C003C207868FEF7CEFE7B68022283F83D20D9
:101F2C007B681A687B6804331946104600F06AFA1D
:101F3C007B68012283F846207B68012283F83E20CF
:101F4C007B68012283F83F207B68012283F84020C4
:101F5C007B68012283F841207B68012283F84220B0
:101F6C007B68012283F843207B68012283F844209C
:101F7C007B68012283F845207B68012283F83D2091
:101F8C00002318460837BD4680BD000080B485B0DC
:101F9C0000AF78607B6893F83D30DBB2012B01D049
:101FAC00012335E07B68022283F83D207B681B68A7
:101FBC00DA687B681B6842F00102DA607B681B6898
:101FCC00164A934209D07B681B68B3F1804F04D04A
:101FDC007B681B68124A934211D17B681B689B6813
:101FEC0003F00703FB60FB68062B10D07B681B68B3
:101FFC001A687B681B6842F001021A6007E07B6874
:10200C001B681A687B681B6842F001021A60002387
:10201C0018461437BD4680BC704700BF002C0140E9
:10202C000004004080B582B000AF78607B681B680C
:10203C001B6903F00203022B22D17B681B68DB684F
:10204C0003F00203022B1BD17B681B686FF00202AA
:10205C001A617B6801221A777B681B689B6903F005
:10206C000303002B03D0786800F0B1F905E0786821
:10207C0000F0A4F9786800F0B3F97B6800221A77B5
:10208C007B681B681B6903F00403042B22D17B685B
:10209C001B68DB6803F00403042B1BD17B681B68F3
:1020AC006FF004021A617B6802221A777B681B6846
:1020BC009B6903F44073002B03D0786800F087F918
:1020CC0005E0786800F07AF9786800F089F97B68A7
:1020DC0000221A777B681B681B6903F00803082B26
:1020EC0022D17B681B68DB6803F00803082B1BD12B
:1020FC007B681B686FF008021A617B6804221A77F0
:10210C007B681B68DB6903F00303002B03D0786842
:10211C0000F05DF905E0786800F050F9786800F09F
:10212C005FF97B6800221A777B681B681B6903F0D8
:10213C001003102B22D17B681B68DB6803F01003A3
:10214C00102B1BD17B681B686FF010021A617B6827
:10215C0008221A777B681B68DB6903F44073002B39
:10216C0003D0786800F033F905E0786800F026F9C0
:10217C00786800F035F97B6800221A777B681B6859
:10218C001B6903F00103012B0ED17B681B68DB6814
:10219C0003F00103012B07D17B681B686FF0010270
:1021AC001A617868FEF7E4FC7B681B681B6903F016
:1021BC008003802B0ED17B681B68DB6803F08003E7
:1021CC00802B07D17B681B686FF080021A617868DE
:1021DC0000F067FA7B681B681B6903F04003402B17
:1021EC000ED17B681B68DB6803F04003402B07D1E2
:1021FC007B681B686FF040021A61786800F0F9F890
:10220C007B681B681B6903F02003202B0ED17B68B5
:10221C001B68DB6803F02003202B07D17B681B684D
:10222C006FF020021A61786800F032FA00BF0837AC
:10223C00BD4680BD80B584B000AF786039607B68E6
:10224C0093F83C30012B01D10223B3E07B680122CF
:10225C0083F83C207B68022283F83D207B681B6856
:10226C009B68FB60FB6823F07703FB60FB6823F43F
:10227C007F43FB607B681B68FA689A603B681B684D
:10228C00B3F5005F3ED0B3F5005F00F28780B3F585
:10229C00805F00F08580B3F5805F7FD8702B1AD0FB
:1022AC00702B7BD8602B50D0602B77D8502B3CD028
:1022BC00502B73D8402B58D0402B6FD8302B64D078
:1022CC00302B6BD8202B60D0202B67D8002B5CD008
:1022DC00102B5AD062E07B6818683B6899683B68A1
:1022EC005A683B68DB6800F05CF97B681B689B688C
:1022FC00FB60FB6843F07703FB607B681B68FA6844
:10230C009A604EE07B6818683B6899683B685A682D
:10231C003B68DB6800F045F97B681B689A687B6852
:10232C001B6842F480429A603BE07B6818683B680B
:10233C0059683B68DB681A4600F0BCF87B681B6880
:10234C005021184600F013F92BE07B6818683B68A5
:10235C0059683B68DB681A4600F0DAF87B681B6842
:10236C006021184600F003F91BE07B6818683B6895
:10237C0059683B68DB681A4600F09CF87B681B6860
:10238C004021184600F0F3F80BE07B681A683B68B4
:10239C001B681946104600F0EAF802E000BF00E0A6
:1023AC0000BF7B68012283F83D207B68002283F804
:1023BC003C20002318461037BD4680BD80B483B046
:1023CC0000AF786000BF0C37BD4680BC704780B44E
:1023DC0083B000AF786000BF0C37BD4680BC70473F
:1023EC0080B483B000AF786000BF0C37BD4680BCB2
:1023FC00704780B483B000AF786000BF0C37BD4627
:10240C0080BC704780B485B000AF786039607B6861
:10241C001B68FB607B68254A934207D07B68B3F14D
:10242C00804F03D07B68224A934208D1FB6823F08B
:10243C007003FB603B685B68FA681343FB607B6866
:10244C001A4A934207D07B68B3F1804F03D07B6864
:10245C00174A934208D1FB6823F44073FB603B6836
:10246C00DB68FA681343FB60FB6823F080023B686F
:10247C005B691343FB607B68FA681A603B689A6877
:10248C007B68DA623B681A687B689A627B68074AE9
:10249C00934203D13B681A697B681A637B680122FB
:1024AC005A6100BF1437BD4680BC7047002C0140F8
:1024BC000004004080B487B000AFF860B9607A6067
:1024CC00FB681B6A7B61FB681B6A23F00102FB68DB
:1024DC001A62FB689B693B613B6923F0F0033B612B
:1024EC007B681B013A6913433B617B6923F00A0348
:1024FC007B617A69BB6813437B61FB683A699A61BB
:10250C00FB687A691A6200BF1C37BD4680BC7047F5
:10251C0080B487B000AFF860B9607A60FB681B6A62
:10252C0023F01002FB681A62FB689B697B61FB68F5
:10253C001B6A3B617B6923F470437B617B681B03E3
:10254C007A6913437B613B6923F0A0033B61BB6851
:10255C001B013A6913433B61FB687A699A61FB681A
:10256C003A691A6200BF1C37BD4680BC704780B404
:10257C0085B000AF786039607B689B68FB60FB6856
:10258C0023F07003FB603A68FB68134343F00703C6
:10259C00FB607B68FA689A6000BF1437BD4680BC4C
:1025AC00704780B487B000AFF860B9607A603B6068
:1025BC00FB689B687B617B6923F47F437B613B6891
:1025CC001A027B681A43BB6813437A6913437B6115
:1025DC00FB687A699A6000BF1C37BD4680BC7047A7
:1025EC0080B485B000AF786039607B6893F83C307C
:1025FC00012B01D1022341E07B68012283F83C20AE
:10260C007B68022283F83D207B681B685B68FB605B
:10261C007B681B689B68BB60FB6823F07003FB60E6
:10262C003B681B68FA681343FB607B681B68FA689D
:10263C005A607B681B68144A934209D07B681B68FC
:10264C00B3F1804F04D07B681B68104A93420CD1C5
:10265C00BB6823F08003BB603B685B68BA681343BC
:10266C00BB607B681B68BA689A607B68012283F840
:10267C003D207B68002283F83C2000231846143749
:10268C00BD4680BC704700BF002C014000040040D8
:10269C0080B483B000AF786000BF0C37BD4680BCFF
:1026AC00704780B483B000AF786000BF0C37BD4674
:1026BC0080BC704770B500260C4D0D4C641BA410EB
:1026CC00A64209D100F022F800260A4D0A4C641BE0
:1026DC00A410A64205D170BD55F8043B98470136AD
:1026EC00EEE755F8043B98470136F2E7502700080F
:1026FC0050270008502700085427000803460244BE
:10270C00934200D1704703F8011BF9E7F8B500BFFD
:10271C00F8BC08BC9E467047F8B500BFF8BC08BCB6
:04272C009E4670470E
:1027300002030405060708090A0B0C0D0E0F101002
:102740000000000000000000010203040607080961
:04275000310100084B
:042754000D0100086B
:1027580001000200040000003F065B4F666D7D0724
:102768007F6700000024F400100000000100000052
:040000050800107966
:00000001FF
